:100000000C9434000C9451000C9451000C94510049
:100010000C9451000C9451000C9451000C9451001C
:100020000C9451000C94C0000C9451000C9451009D
:100030000C9451000C9451000C9451000C945100FC
:100040000C94B2000C9451000C9451000C9451008B
:100050000C9451000C9453000C9451000C945100DA
:100060000C9451000C94510011241FBECFEFD8E026
:10007000DEBFCDBF12E0A8E0B2E001C01D92AB3000
:10008000B107E1F712E0A0E0B1E0E2EBFDE002C071
:1000900005900D92A830B107D9F70E94CE000C94BC
:1000A000D7060C9400001F920F920FB60F921124E6
:1000B0002F933F934F935F936F937F938F939F9370
:1000C000AF93BF93EF93FF9380910A02882359F473
:1000D00080917800909179008A599F4F6CEC70E084
:1000E0000E94790611C0609178007091790082E0D9
:1000F0006B38780714F060E872E0605C7F4F660F41
:10010000672F661F770B71951092080230E04FEF52
:100110005FEFE1E0F0E013C020910802CF01042E70
:1001200002C0880F991F0A94E2F7880F991F880F61
:10013000991F282B209308023F5F4F5F5F4F3617B0
:1001400058F3FF91EF91BF91AF919F918F917F9164
:100150006F915F914F913F912F910F900FBE0F9034
:100160001F9018951F920F920FB60F9211248F9324
:1001700083E686BD8F910F900FBE0F901F9018954C
:100180001F920F920FB60F921124109270001092CE
:1001900009020F900FBE0F901F901895BF92CF923B
:1001A000DF92EF92FF920F931F93F8948CE384B940
:1001B000219A1AB814BC85E085BD83E686BD81E02E
:1001C00080936E0082E8809380008AE180938100B2
:1001D00080E49CE9909387008093860088E097E014
:1001E00090938900809388001092B00087E08093FC
:1001F000B1001092B200109270008CEA80937A00E5
:1002000084E080937B0080E480937C0080917A007E
:10021000806480937A00789490E001E084E0B82EC6
:1002200018E0C12EB0E1DB2EA0E2EA2EF5E3FF2EAE
:1002300019B11072809109028823E9F41123D9F0D1
:100240009923C9F4009309021092B2000093700040
:1002500080910A02882341F480917C008160809320
:100260007C0000930A0207C080917C008E7F8093FF
:100270007C0010920A028091080285B94A9B03C053
:1002800085B18B2585B94B9B03C085B18C2585B97C
:100290004C9B03C085B18D2585B94D9B03C085B1AD
:1002A0008E2585B980910A02912F882309F68F2D1A
:1002B0008A95F1F780917A00806480937A0080912A
:1002C0007A0086FDFCCF60917800709179008827D4
:1002D00077FD8095982F0E942B0420E030E040E8C5
:1002E0005AE30E94310320E030EE4BE255E40E94D5
:1002F000310320E030E84BEB54E40E9404030E94F9
:1003000089047093890060938800912F91CFA0E0B9
:10031000B0E0EDE8F1E00C94A006DC012B01FA015D
:100320009C91923008F439C1EB018881823008F445
:1003300033C1943069F4843009F02FC111969C9137
:1003400011978981981709F428C1A0E0B1E025C16F
:10035000843009F421C18230A9F4923009F01DC122
:100360009A01AD0188E0EA010990AE01E901099224
:100370009E018150C1F7E201898111969C918923E8
:10038000818308C1923009F407C112962D903C90E8
:100390001397EB018A819B811496AD90BD90CD900F
:1003A000DC901797EC80FD800E811F819101281B46
:1003B000390BB90137FF04C066277727621B730B1F
:1003C000603271050CF061C0121613066CF537012E
:1003D0004801062E04C096948794779467940A94F3
:1003E000D2F721E030E040E050E004C0220F331F9C
:1003F000441F551F6A95D2F721503040404050406D
:100400002E213F214023512321153105410551055E
:1004100021F021E030E040E050E079018A01E62857
:10042000F728082919293CC0232BD1F1260E371EA5
:1004300035014601062E04C09694879477946794FC
:100440000A94D2F721E030E040E050E004C0220FEF
:10045000331F441F551F6A95D2F72150304040404A
:1004600050402A213B214C215D21211531054105B8
:10047000510521F021E030E040E050E059016A01EF
:10048000A628B728C828D9280BC0821593052CF0B8
:100490001C01AA24BB24650103C0EE24FF248701AC
:1004A00011969C91D20111968C91981709F445C030
:1004B000992339F0A80197012A193B094C095D09D4
:1004C00006C0A60195012E193F09400B510B57FD9F
:1004D00008C0118233822282248335834683578366
:1004E0001DC081E081833382228288279927DC0125
:1004F000821B930BA40BB50B84839583A683B783D0
:100500000DC0220F331F441F551F2483358346839C
:1005100057838281938101979383828324813581DC
:1005200046815781DA01C9010197A109B1098F5F9D
:100530009F4FAF4FBF4328F30BC09183338222827A
:10054000EA0CFB1C0C1D1D1DE482F582068317833B
:1005500083E08083248135814681578157FF1AC00B
:10056000C901AA2797FDA095BA2F81709070A0703D
:10057000B0705695479537952795822B932BA42BD2
:10058000B52B84839583A683B7838281938101965B
:1005900093838283DF0101C0D201CD01CDB7DEB7E5
:1005A000E2E10C94BC06A0E2B0E0E9EDF2E00C94CC
:1005B000AC0669837A838B839C832D833E834F8330
:1005C0005887E9E0EE2EF12CEC0EFD1ECE010196CF
:1005D000B7010E9401068E010F5E1F4FCE010596E6
:1005E000B8010E9401068A8991E089278A8BC70198
:1005F000B801AE01475E5F4F0E9487010E942C0543
:10060000A096E6E00C94C806A0E2B0E0EAE0F3E0D1
:100610000C94AC0669837A838B839C832D833E8301
:100620004F835887F9E0EF2EF12CEC0EFD1ECE0122
:100630000196B7010E9401068E010F5E1F4FCE0189
:100640000596B8010E940106C701B801AE01475ED8
:100650005F4F0E9487010E942C05A096E6E00C9453
:10066000C806A0E2B0E0E7E3F3E00C94A0066983DB
:100670007A838B839C832D833E834F835887CE015F
:100680000196BE01675F7F4F0E940106CE0105966D
:10069000BE016F5E7F4F0E9401069985923088F0FF
:1006A00089898230C8F0943019F4823051F404C042
:1006B000843029F4923081F480E091E0C6C0923019
:1006C00049F420E09A858A89981321E02A87CE018F
:1006D0000996BBC0823049F420E09A858A89981334
:1006E00021E02A8BCE014196B0C02D843E844F84F8
:1006F00058886D887E888F88988CEE24FF24870127
:10070000AA24BB24650140E050E060E070E0E0E036
:10071000F0E0C10181709070892BE9F0E60CF71CC4
:10072000081D191D9A01AB012A0D3B1D4C1D5D1DB5
:1007300080E090E0A0E0B0E0E614F70408051905B9
:1007400020F481E090E0A0E0B0E0BA01A901480FF8
:10075000591F6A1F7B1FAA0CBB1CCC1CDD1C97FEFB
:1007600008C081E090E0A0E0B0E0A82AB92ACA2A37
:10077000DB2A3196E032F10549F0660C771C881CC3
:10078000991C5694479437942794C3CFFA85EA89E5
:100790002B893C898B859C85280F391F2E5F3F4F05
:1007A00017C0CA0181709070892B61F0169507956A
:1007B000F794E79480E090E0A0E0B0E8E82AF92A16
:1007C0000A2B1B2B76956795579547952F5F3F4FC3
:1007D00077FDE7CF0CC0440F551F661F771F17FD2D
:1007E0004160EE0CFF1C001F111F215030404030B3
:1007F00090E0590790E0690790E4790760F32B8F48
:100800003C8FDB01CA018F779070A070B07080348C
:100810009105A105B10561F447FD0AC0E114F10499
:100820000105110529F0405C5F4F6F4F7F4F407805
:100830001A8EFE1711F081E08A8F4D8F5E8F6F8FB9
:1008400078A383E0898FCE0149960E942C05A0965B
:10085000E2E10C94BC06A8E0B0E0E1E3F4E00C9423
:10086000A9069B01AC0183E08983DA01C9018827CD
:10087000B7FD83959927AA27BB27B82E21153105E7
:100880004105510519F482E089833AC08823A9F013
:10089000203080E0380780E0480780E8580729F4D6
:1008A00060E070E080E09FEC30C0EE24FF24870120
:1008B000E21AF30A040B150B02C079018A018EE1DA
:1008C000C82ED12CDC82CB82ED82FE820F8318876A
:1008D000C801B7010E94DD0401971816190684F4B7
:1008E000082E04C0EE0CFF1C001F111F0A94D2F743
:1008F000ED82FE820F831887C81AD90ADC82CB8268
:10090000BA82CE0101960E942C052896E9E00C944B
:10091000C506ACE0B0E0EFE8F4E00C94B006698303
:100920007A838B839C83CE010196BE016B5F7F4FE0
:100930000E9401068D81823061F1823050F1843055
:1009400021F48E81882351F12EC02F81388537FD07
:1009500020C06E812F3131051CF06623F9F023C0D1
:100960008EE190E0821B930B29853A854B855C854F
:1009700004C056954795379527958A95D2F76623F3
:10098000B1F050954095309521953F4F4F4F5F4FB7
:100990000EC020E030E040E050E009C02FEF3FEF14
:1009A0004FEF5FE704C020E030E040E050E8B901DD
:1009B000CA012C96E2E00C94CC06EF92FF920F93C2
:1009C0001F937B018C0180E0E81680E0F80681E04F
:1009D000080780E0180788F48FEFE816F104010596
:1009E000110531F028F088E090E0A0E0B0E017C0F9
:1009F00080E090E0A0E0B0E012C080E0E81680E087
:100A0000F80680E0080781E0180728F088E190E008
:100A1000A0E0B0E004C080E190E0A0E0B0E020E21F
:100A200030E040E050E0281B390B4A0B5B0B04C060
:100A300016950795F794E7948A95D2F7F701E85F42
:100A4000FE4F8081281B310941095109C9011F91BD
:100A50000F91FF90EF900895DF92EF92FF920F9326
:100A60001F93FC01E480F58006811781D18080818D
:100A7000823048F480E090E0A0E1B0E0E82AF92A72
:100A80000A2B1B2BA5C0843009F49FC0823021F4AF
:100A9000EE24FF24870105C0E114F10401051105CE
:100AA00019F4E0E0F0E096C0628173819FEF623854
:100AB00079070CF05BC022E83FEF261B370B2A3189
:100AC00031052CF020E030E040E050E02AC0B801D1
:100AD000A701022E04C076956795579547950A940D
:100AE000D2F781E090E0A0E0B0E004C0880F991F49
:100AF000AA1FBB1F2A95D2F70197A109B1098E2120
:100B00009F21A023B1230097A105B10521F081E029
:100B100090E0A0E0B0E09A01AB01282B392B4A2BE2
:100B20005B2BDA01C9018F779070A070B0708034B0
:100B30009105A105B10539F427FF09C0205C3F4F9D
:100B40004F4F5F4F04C0215C3F4F4F4F5F4FE0E07E
:100B5000F0E02030A0E03A07A0E04A07A0E45A07FE
:100B600010F0E1E0F0E079018A0127C060387105FA
:100B700064F5FB01E158FF4FD801C7018F779070F2
:100B8000A070B07080349105A105B10539F4E7FE7D
:100B90000DC080E490E0A0E0B0E004C08FE390E0FE
:100BA000A0E0B0E0E80EF91E0A1F1B1F17FF05C0EA
:100BB00016950795F794E794319687E01695079573
:100BC000F794E7948A95D1F705C0EE24FF248701B6
:100BD000EFEFF0E06E2F679566276795902F9F7770
:100BE000D794DD24D7948E2F8695492F462B582FE6
:100BF0005D29B701CA011F910F91FF90EF90DF901F
:100C00000895FC01DB01408151812281622F6F77C1
:100C100070E0221F2227221F9381892F880F822BA9
:100C2000282F30E0991F9927991F11969C931197AF
:100C300021153105A9F5411551056105710511F41D
:100C400082E037C082E89FEF13969C938E931297B1
:100C50009A01AB0167E0220F331F441F551F6A95AD
:100C6000D1F783E08C930DC0220F331F441F551F13
:100C700012968D919C911397019713969C938E9346
:100C80001297203080E0380780E0480780E458075A
:100C900058F314962D933D934D935C9317970895B5
:100CA0002F3F310579F4411551056105710519F49E
:100CB00084E08C93089564FF03C081E08C9312C09C
:100CC0001C9210C02F57304013963C932E931297CE
:100CD00083E08C9387E0440F551F661F771F8A952A
:100CE000D1F7706414964D935D936D937C93179731
:100CF000089597FB092E07260AD077FD04D00CD063
:100D000006D000201AF4709561957F4F0895F6F78C
:100D1000909581959F4F0895AA1BBB1B51E107C079
:100D2000AA1FBB1FA617B70710F0A61BB70B881F7B
:100D3000991F5A95A9F780959095BC01CD0108950A
:100D40002F923F924F925F926F927F928F929F92DB
:100D5000AF92BF92CF92DF92EF92FF920F931F93C9
:100D6000CF93DF93CDB7DEB7CA1BDB0B0FB6F8947A
:100D7000DEBF0FBECDBF09942A88398848885F84BA
:100D80006E847D848C849B84AA84B984C884DF802B
:100D9000EE80FD800C811B81AA81B981CE0FD11D0F
:100DA0000FB6F894DEBF0FBECDBFED010895F894E5
:020DB000FFCF73
:100DB2000000000000000000000102020303030320
:100DC20004040404040404040505050505050505D9
:100DD20005050505050505050606060606060606B9
:100DE20006060606060606060606060606060606A1
:100DF2000606060606060606070707070707070789
:100E02000707070707070707070707070707070770
:100E12000707070707070707070707070707070760
:100E22000707070707070707070707070707070750
:100E32000707070707070707080808080808080838
:100E42000808080808080808080808080808080820
:100E52000808080808080808080808080808080810
:100E62000808080808080808080808080808080800
:100E720008080808080808080808080808080808F0
:100E820008080808080808080808080808080808E0
:100E920008080808080808080808080808080808D0
:100EA20008080808080808080808080808080808C0
:080EB2000808080808080808F8
:00000001FF
